{
  "contractName": "KYC",
  "abi": [
    {
      "constant": true,
      "inputs": [
        {
          "name": "",
          "type": "bytes32"
        }
      ],
      "name": "customersMap",
      "outputs": [
        {
          "name": "user_name",
          "type": "bytes32"
        },
        {
          "name": "data_hash",
          "type": "bytes32"
        },
        {
          "name": "kyc_status",
          "type": "bool"
        },
        {
          "name": "down_votes",
          "type": "uint256"
        },
        {
          "name": "up_votes",
          "type": "uint256"
        },
        {
          "name": "bank_addr",
          "type": "address"
        }
      ],
      "payable": false,
      "stateMutability": "view",
      "type": "function"
    },
    {
      "constant": true,
      "inputs": [
        {
          "name": "",
          "type": "address"
        }
      ],
      "name": "banksMap",
      "outputs": [
        {
          "name": "bank_name",
          "type": "bytes32"
        },
        {
          "name": "eth_address",
          "type": "address"
        },
        {
          "name": "report",
          "type": "uint256"
        },
        {
          "name": "kyc_count",
          "type": "uint256"
        },
        {
          "name": "kyc_permission",
          "type": "bool"
        },
        {
          "name": "reg_number",
          "type": "bytes32"
        }
      ],
      "payable": false,
      "stateMutability": "view",
      "type": "function"
    },
    {
      "constant": true,
      "inputs": [
        {
          "name": "",
          "type": "bytes32"
        }
      ],
      "name": "requestsMap",
      "outputs": [
        {
          "name": "user_name",
          "type": "bytes32"
        },
        {
          "name": "bank_addr",
          "type": "address"
        },
        {
          "name": "data_hash",
          "type": "bytes32"
        }
      ],
      "payable": false,
      "stateMutability": "view",
      "type": "function"
    },
    {
      "inputs": [],
      "payable": true,
      "stateMutability": "payable",
      "type": "constructor"
    },
    {
      "constant": true,
      "inputs": [
        {
          "name": "customer",
          "type": "bytes32"
        }
      ],
      "name": "checkIfCustomerIsPresent",
      "outputs": [
        {
          "name": "",
          "type": "bool"
        }
      ],
      "payable": false,
      "stateMutability": "view",
      "type": "function"
    },
    {
      "constant": true,
      "inputs": [
        {
          "name": "bank_addr",
          "type": "address"
        }
      ],
      "name": "isPartOfBanks",
      "outputs": [
        {
          "name": "",
          "type": "bool"
        }
      ],
      "payable": false,
      "stateMutability": "view",
      "type": "function"
    },
    {
      "constant": false,
      "inputs": [
        {
          "name": "bank_addr",
          "type": "address"
        }
      ],
      "name": "checkKycBankPermission",
      "outputs": [
        {
          "name": "",
          "type": "bool"
        }
      ],
      "payable": false,
      "stateMutability": "nonpayable",
      "type": "function"
    },
    {
      "constant": true,
      "inputs": [
        {
          "name": "customer",
          "type": "bytes32"
        }
      ],
      "name": "checkKycCustomerRating",
      "outputs": [
        {
          "name": "",
          "type": "bool"
        }
      ],
      "payable": false,
      "stateMutability": "view",
      "type": "function"
    },
    {
      "constant": false,
      "inputs": [
        {
          "name": "customer",
          "type": "bytes32"
        },
        {
          "name": "data_hash",
          "type": "bytes32"
        }
      ],
      "name": "addRequest",
      "outputs": [],
      "payable": true,
      "stateMutability": "payable",
      "type": "function"
    },
    {
      "constant": false,
      "inputs": [
        {
          "name": "customer",
          "type": "bytes32"
        },
        {
          "name": "data_hash",
          "type": "bytes32"
        }
      ],
      "name": "addCustomer",
      "outputs": [],
      "payable": true,
      "stateMutability": "payable",
      "type": "function"
    },
    {
      "constant": false,
      "inputs": [
        {
          "name": "customer",
          "type": "bytes32"
        }
      ],
      "name": "removeRequest",
      "outputs": [],
      "payable": true,
      "stateMutability": "payable",
      "type": "function"
    },
    {
      "constant": false,
      "inputs": [
        {
          "name": "customer",
          "type": "bytes32"
        }
      ],
      "name": "removeCustomer",
      "outputs": [],
      "payable": true,
      "stateMutability": "payable",
      "type": "function"
    },
    {
      "constant": false,
      "inputs": [
        {
          "name": "customer",
          "type": "bytes32"
        }
      ],
      "name": "viewCustomer",
      "outputs": [
        {
          "name": "",
          "type": "bytes32"
        },
        {
          "name": "",
          "type": "bytes32"
        }
      ],
      "payable": true,
      "stateMutability": "payable",
      "type": "function"
    },
    {
      "constant": false,
      "inputs": [
        {
          "name": "customer",
          "type": "bytes32"
        }
      ],
      "name": "upvoteCustomer",
      "outputs": [],
      "payable": true,
      "stateMutability": "payable",
      "type": "function"
    },
    {
      "constant": false,
      "inputs": [
        {
          "name": "customer",
          "type": "bytes32"
        }
      ],
      "name": "downvoteCustomer",
      "outputs": [],
      "payable": true,
      "stateMutability": "payable",
      "type": "function"
    },
    {
      "constant": false,
      "inputs": [
        {
          "name": "customer",
          "type": "bytes32"
        },
        {
          "name": "data_hash",
          "type": "bytes32"
        }
      ],
      "name": "modifyCustomer",
      "outputs": [],
      "payable": true,
      "stateMutability": "payable",
      "type": "function"
    },
    {
      "constant": true,
      "inputs": [
        {
          "name": "bank_addr",
          "type": "address"
        }
      ],
      "name": "getBankReports",
      "outputs": [
        {
          "name": "",
          "type": "uint256"
        }
      ],
      "payable": false,
      "stateMutability": "view",
      "type": "function"
    },
    {
      "constant": true,
      "inputs": [
        {
          "name": "customer",
          "type": "bytes32"
        }
      ],
      "name": "getCustomerStatus",
      "outputs": [
        {
          "name": "",
          "type": "bool"
        }
      ],
      "payable": false,
      "stateMutability": "view",
      "type": "function"
    },
    {
      "constant": true,
      "inputs": [
        {
          "name": "bank_addr",
          "type": "address"
        }
      ],
      "name": "viewBankDetails",
      "outputs": [
        {
          "name": "",
          "type": "bytes32"
        }
      ],
      "payable": false,
      "stateMutability": "view",
      "type": "function"
    },
    {
      "constant": false,
      "inputs": [
        {
          "name": "bank_name",
          "type": "bytes32"
        },
        {
          "name": "bank_addr",
          "type": "address"
        },
        {
          "name": "reg_number",
          "type": "bytes32"
        }
      ],
      "name": "addBank",
      "outputs": [],
      "payable": true,
      "stateMutability": "payable",
      "type": "function"
    },
    {
      "constant": false,
      "inputs": [
        {
          "name": "bank_addr",
          "type": "address"
        }
      ],
      "name": "modifyBankKycPermission",
      "outputs": [],
      "payable": true,
      "stateMutability": "payable",
      "type": "function"
    },
    {
      "constant": false,
      "inputs": [
        {
          "name": "bank_addr",
          "type": "address"
        }
      ],
      "name": "removeBank",
      "outputs": [],
      "payable": true,
      "stateMutability": "payable",
      "type": "function"
    }
  ],
  "bytecode": "0x608060405233600460006101000a81548173ffffffffffffffffffffffffffffffffffffffff021916908373ffffffffffffffffffffffffffffffffffffffff16021790555060006003819055506118ed8061005c6000396000f3fe60806040526004361061012a5760003560e01c80636d85ffc8116100ab5780639e718ebc1161006f5780639e718ebc146106c8578063b8af51da1461071b578063c08bdb4314610753578063c9091acc14610781578063f523d70f146107b9578063fe810d2e146107e75761012a565b80636d85ffc81461048b5780637702db551461054357806381eb5936146105cc57806388cc8d8d1461061f5780639649650c146106845761012a565b80634491bf5e116100f25780634491bf5e146102d65780634ab9ab0d146103045780634cbc9c121461033c5780634ec26dc214610380578063677a2db0146103e95761012a565b806304704c921461012f57806306aecb8c1461018257806310f50fb2146101da578063270b45541461024357806330882219146102a8575b600080fd5b34801561013b57600080fd5b506101686004803603602081101561015257600080fd5b8101908080359060200190929190505050610830565b604051808215151515815260200191505060405180910390f35b6101d86004803603606081101561019857600080fd5b8101908080359060200190929190803573ffffffffffffffffffffffffffffffffffffffff1690602001909291908035906020019092919050505061085c565b005b3480156101e657600080fd5b50610229600480360360208110156101fd57600080fd5b81019080803573ffffffffffffffffffffffffffffffffffffffff169060200190929190505050610a20565b604051808215151515815260200191505060405180910390f35b34801561024f57600080fd5b506102926004803603602081101561026657600080fd5b81019080803573ffffffffffffffffffffffffffffffffffffffff169060200190929190505050610b2a565b6040518082815260200191505060405180910390f35b6102d4600480360360208110156102be57600080fd5b8101908080359060200190929190505050610b76565b005b610302600480360360208110156102ec57600080fd5b8101908080359060200190929190505050610bbe565b005b61033a6004803603604081101561031a57600080fd5b810190808035906020019092919080359060200190929190505050610dbd565b005b61037e6004803603602081101561035257600080fd5b81019080803573ffffffffffffffffffffffffffffffffffffffff169060200190929190505050610e94565b005b34801561038c57600080fd5b506103cf600480360360208110156103a357600080fd5b81019080803573ffffffffffffffffffffffffffffffffffffffff169060200190929190505050610fe7565b604051808215151515815260200191505060405180910390f35b3480156103f557600080fd5b506104226004803603602081101561040c57600080fd5b8101908080359060200190929190505050611092565b60405180878152602001868152602001851515151581526020018481526020018381526020018273ffffffffffffffffffffffffffffffffffffffff1673ffffffffffffffffffffffffffffffffffffffff168152602001965050505050505060405180910390f35b34801561049757600080fd5b506104da600480360360208110156104ae57600080fd5b81019080803573ffffffffffffffffffffffffffffffffffffffff1690602001909291905050506110fb565b604051808781526020018673ffffffffffffffffffffffffffffffffffffffff1673ffffffffffffffffffffffffffffffffffffffff16815260200185815260200184815260200183151515158152602001828152602001965050505050505060405180910390f35b34801561054f57600080fd5b5061057c6004803603602081101561056657600080fd5b8101908080359060200190929190505050611164565b604051808481526020018373ffffffffffffffffffffffffffffffffffffffff1673ffffffffffffffffffffffffffffffffffffffff168152602001828152602001935050505060405180910390f35b3480156105d857600080fd5b50610605600480360360208110156105ef57600080fd5b81019080803590602001909291905050506111ae565b604051808215151515815260200191505060405180910390f35b34801561062b57600080fd5b5061066e6004803603602081101561064257600080fd5b81019080803573ffffffffffffffffffffffffffffffffffffffff169060200190929190505050611220565b6040518082815260200191505060405180910390f35b6106c66004803603602081101561069a57600080fd5b81019080803573ffffffffffffffffffffffffffffffffffffffff16906020019092919050505061126c565b005b3480156106d457600080fd5b50610701600480360360208110156106eb57600080fd5b81019080803590602001909291905050506113b2565b604051808215151515815260200191505060405180910390f35b6107516004803603604081101561073157600080fd5b8101908080359060200190929190803590602001909291905050506113e4565b005b61077f6004803603602081101561076957600080fd5b810190808035906020019092919050505061159b565b005b6107b76004803603604081101561079757600080fd5b8101908080359060200190929190803590602001909291905050506116bb565b005b6107e5600480360360208110156107cf57600080fd5b81019080803590602001909291905050506117cc565b005b610813600480360360208110156107fd57600080fd5b8101908080359060200190929190505050611815565b604051808381526020018281526020019250505060405180910390f35b600080600083815260200190815260200160002060020160009054906101000a900460ff169050919050565b600460009054906101000a900473ffffffffffffffffffffffffffffffffffffffff1673ffffffffffffffffffffffffffffffffffffffff163373ffffffffffffffffffffffffffffffffffffffff1614610902576040517f08c379a00000000000000000000000000000000000000000000000000000000081526004018080602001828103825260468152602001806118736046913960600191505060405180910390fd5b6040518060c001604052808481526020018373ffffffffffffffffffffffffffffffffffffffff168152602001600081526020016000815260200160011515815260200182815250600160008473ffffffffffffffffffffffffffffffffffffffff1673ffffffffffffffffffffffffffffffffffffffff1681526020019081526020016000206000820151816000015560208201518160010160006101000a81548173ffffffffffffffffffffffffffffffffffffffff021916908373ffffffffffffffffffffffffffffffffffffffff160217905550604082015181600201556060820151816003015560808201518160040160006101000a81548160ff02191690831515021790555060a08201518160050155905050505050565b60006003805481610a2d57fe5b04600160008473ffffffffffffffffffffffffffffffffffffffff1673ffffffffffffffffffffffffffffffffffffffff168152602001908152602001600020600201541015610ad3576000600160008473ffffffffffffffffffffffffffffffffffffffff1673ffffffffffffffffffffffffffffffffffffffff16815260200190815260200160002060040160006101000a81548160ff0219169083151502179055505b600160008373ffffffffffffffffffffffffffffffffffffffff1673ffffffffffffffffffffffffffffffffffffffff16815260200190815260200160002060040160009054906101000a900460ff169050919050565b6000600160008373ffffffffffffffffffffffffffffffffffffffff1673ffffffffffffffffffffffffffffffffffffffff168152602001908152602001600020600201549050919050565b610b7f33610fe7565b8015610b905750610b8f816113b2565b5b15610bbb57600080828152602001908152602001600020600401600081548092919060010191905055505b50565b610bc733610fe7565b8015610bd85750610bd7816113b2565b5b8015610c4457503373ffffffffffffffffffffffffffffffffffffffff1660008083815260200190815260200160002060050160009054906101000a900473ffffffffffffffffffffffffffffffffffffffff1673ffffffffffffffffffffffffffffffffffffffff16145b15610dba5760008082815260200190815260200160002060008082016000905560018201600090556002820160006101000a81549060ff0219169055600382016000905560048201600090556005820160006101000a81549073ffffffffffffffffffffffffffffffffffffffff021916905550505b8060026000838152602001908152602001600020600001541415610db95760006002600083815260200190815260200160002060010160009054906101000a900473ffffffffffffffffffffffffffffffffffffffff169050600160008273ffffffffffffffffffffffffffffffffffffffff1673ffffffffffffffffffffffffffffffffffffffff1681526020019081526020016000206003016000815480929190600190039190505550600260008381526020019081526020016000206000808201600090556001820160006101000a81549073ffffffffffffffffffffffffffffffffffffffff02191690556002820160009055505050610cba565b5b50565b610dc633610fe7565b8015610dd75750610dd633610a20565b5b8015610de85750610de7826111ae565b5b15610e905760405180606001604052808381526020013373ffffffffffffffffffffffffffffffffffffffff16815260200182815250600260008481526020019081526020016000206000820151816000015560208201518160010160006101000a81548173ffffffffffffffffffffffffffffffffffffffff021916908373ffffffffffffffffffffffffffffffffffffffff160217905550604082015181600201559050505b5050565b600460009054906101000a900473ffffffffffffffffffffffffffffffffffffffff1673ffffffffffffffffffffffffffffffffffffffff163373ffffffffffffffffffffffffffffffffffffffff1614610f3a576040517f08c379a00000000000000000000000000000000000000000000000000000000081526004018080602001828103825260468152602001806118736046913960600191505060405180910390fd5b600160008273ffffffffffffffffffffffffffffffffffffffff1673ffffffffffffffffffffffffffffffffffffffff16815260200190815260200160002060040160009054906101000a900460ff1615600160008373ffffffffffffffffffffffffffffffffffffffff1673ffffffffffffffffffffffffffffffffffffffff16815260200190815260200160002060040160006101000a81548160ff02191690831515021790555050565b60008173ffffffffffffffffffffffffffffffffffffffff16600160008473ffffffffffffffffffffffffffffffffffffffff1673ffffffffffffffffffffffffffffffffffffffff16815260200190815260200160002060010160009054906101000a900473ffffffffffffffffffffffffffffffffffffffff1673ffffffffffffffffffffffffffffffffffffffff161415611088576001905061108d565b600090505b919050565b60006020528060005260406000206000915090508060000154908060010154908060020160009054906101000a900460ff16908060030154908060040154908060050160009054906101000a900473ffffffffffffffffffffffffffffffffffffffff16905086565b60016020528060005260406000206000915090508060000154908060010160009054906101000a900473ffffffffffffffffffffffffffffffffffffffff16908060020154908060030154908060040160009054906101000a900460ff16908060050154905086565b60026020528060005260406000206000915090508060000154908060010160009054906101000a900473ffffffffffffffffffffffffffffffffffffffff16908060020154905083565b60008060008381526020019081526020016000206003015460008084815260200190815260200160002060040154118015611208575060038054816111ef57fe5b0460008084815260200190815260200160002060030154105b15611216576001905061121b565b600090505b919050565b6000600160008373ffffffffffffffffffffffffffffffffffffffff1673ffffffffffffffffffffffffffffffffffffffff168152602001908152602001600020600001549050919050565b600460009054906101000a900473ffffffffffffffffffffffffffffffffffffffff1673ffffffffffffffffffffffffffffffffffffffff163373ffffffffffffffffffffffffffffffffffffffff1614611312576040517f08c379a00000000000000000000000000000000000000000000000000000000081526004018080602001828103825260468152602001806118736046913960600191505060405180910390fd5b600160008273ffffffffffffffffffffffffffffffffffffffff1673ffffffffffffffffffffffffffffffffffffffff1681526020019081526020016000206000808201600090556001820160006101000a81549073ffffffffffffffffffffffffffffffffffffffff0219169055600282016000905560038201600090556004820160006101000a81549060ff02191690556005820160009055505050565b6000816000808481526020019081526020016000206000015414156113da57600190506113df565b600090505b919050565b6113ed33610fe7565b156115975780600080848152602001908152602001600020600101819055503360008084815260200190815260200160002060050160006101000a81548173ffffffffffffffffffffffffffffffffffffffff021916908373ffffffffffffffffffffffffffffffffffffffff1602179055506000806000848152602001908152602001600020600401819055506000806000848152602001908152602001600020600301819055505b81600260008481526020019081526020016000206000015414156115965760006002600084815260200190815260200160002060010160009054906101000a900473ffffffffffffffffffffffffffffffffffffffff169050600160008273ffffffffffffffffffffffffffffffffffffffff1673ffffffffffffffffffffffffffffffffffffffff1681526020019081526020016000206003016000815480929190600190039190505550600260008481526020019081526020016000206000808201600090556001820160006101000a81549073ffffffffffffffffffffffffffffffffffffffff02191690556002820160009055505050611497565b5b5050565b6115a433610fe7565b80156115b557506115b433610a20565b5b80156115d65750806002600083815260200190815260200160002060000154145b156116b85760006002600083815260200190815260200160002060010160009054906101000a900473ffffffffffffffffffffffffffffffffffffffff169050600260008381526020019081526020016000206000808201600090556001820160006101000a81549073ffffffffffffffffffffffffffffffffffffffff021916905560028201600090555050600160008273ffffffffffffffffffffffffffffffffffffffff1673ffffffffffffffffffffffffffffffffffffffff1681526020019081526020016000206003016000815480929190600190039190505550505b50565b6116c4826113b2565b1580156116d657506116d533610fe7565b5b156117c8576040518060c0016040528083815260200182815260200160011515815260200160008152602001600081526020013373ffffffffffffffffffffffffffffffffffffffff16815250600080848152602001908152602001600020600082015181600001556020820151816001015560408201518160020160006101000a81548160ff021916908315150217905550606082015181600301556080820151816004015560a08201518160050160006101000a81548173ffffffffffffffffffffffffffffffffffffffff021916908373ffffffffffffffffffffffffffffffffffffffff1602179055509050505b5050565b6117d533610fe7565b80156117e657506117e5816113b2565b5b156118125760008082815260200190815260200160002060030160008154809291906001900391905055505b50565b60008061182133610fe7565b80156118325750611831836113b2565b5b1561186c5760008084815260200190815260200160002060000154600080858152602001908152602001600020600101549150915061186d565b5b91509156fe596f7520617265206e6f7420616e2041646d696e6973747261746f722e204f6e6c792061646d696e732063616e20706572666f726d20746869732066756e6374696f6e2e2e2ea265627a7a7230582039ef3708438e94288660ae9f97a5ec4b495e1cb43905951f4a5c0f148d91776a64736f6c63430005090032",
  "source": "pragma solidity ^0.5.9;\n\ncontract KYC {\n\tstruct Customer{\n    \tbytes32 user_name;\n    \tbytes32 data_hash;\n    \tbool kyc_status;\n    \tuint down_votes;\n    \tuint up_votes;\n    \taddress bank_addr;\n\t}\n\tstruct Bank{\n\t    bytes32 bank_name;\n\t    address eth_address;\n\t    uint report;\n\t    uint kyc_count;\n\t    bool kyc_permission;\n\t    bytes32 reg_number;\n\t}\n\tstruct KYC_Request{\n        bytes32 user_name;\n        address bank_addr;\n        bytes32 data_hash;\n\t}\n\t\n\tmapping(bytes32 => Customer) public customersMap;\n\tmapping(address => Bank) public banksMap;\n\tmapping(bytes32 => KYC_Request) public requestsMap;\n\t\n\tuint bankCounts;\n\t\n\taddress admin;\n\t\n\tconstructor () public payable {\n\t    admin = msg.sender;\n\t    bankCounts = 0;\n    \t}\n    \t\n    // BANK INTERFACE \n\tfunction checkIfCustomerIsPresent(bytes32 customer) public view returns (bool){\n\t    if(customersMap[customer].user_name == customer)\n\t        return true;\n\t    else\n\t        return false;\n\t}\n\t\n\tfunction isPartOfBanks(address bank_addr) public view returns (bool){\n\t    if(banksMap[bank_addr].eth_address == bank_addr)\n\t        return true;\n\t    else\n\t        return false;\n\t}\n\t\n\tfunction checkKycBankPermission(address bank_addr) public returns (bool){\n\t    if(banksMap[bank_addr].report < uint(bankCounts /3))\n\t        banksMap[bank_addr].kyc_permission = false;    \n\t    return banksMap[bank_addr].kyc_permission;\n\t}\n\t\n\tfunction checkKycCustomerRating(bytes32 customer) public view returns (bool){\n\t    if(customersMap[customer].up_votes > customersMap[customer].down_votes && customersMap[customer].down_votes < uint(bankCounts /3))\n\t        return true;\n\t    return false;\n\t}\n\t\n\tfunction addRequest(bytes32 customer, bytes32 data_hash) public payable{\n\t    if(isPartOfBanks(msg.sender) && checkKycBankPermission(msg.sender) && checkKycCustomerRating(customer))\n\t        requestsMap[customer] = KYC_Request(customer, msg.sender, data_hash);\n\t    }\n\t\n\t\n    function addCustomer(bytes32 customer, bytes32 data_hash) public payable {\n        if (!checkIfCustomerIsPresent(customer) && isPartOfBanks(msg.sender))\n            customersMap[customer] = Customer(customer, data_hash, true, 0, 0, msg.sender);\n    }\n    \n    function removeRequest(bytes32 customer) public payable {\n        if(isPartOfBanks(msg.sender) && checkKycBankPermission(msg.sender) && requestsMap[customer].user_name == customer){\n            address addr = requestsMap[customer].bank_addr;\n            delete requestsMap[customer];\n            banksMap[addr].kyc_count--;\n        }\n    }\n    \n\tfunction removeCustomer(bytes32 customer) public payable {\n        if(isPartOfBanks(msg.sender) && checkIfCustomerIsPresent(customer) && customersMap[customer].bank_addr == msg.sender){\n            // removing the customer from customersMap\n            delete customersMap[customer];\n            \n            // removing the single or mulitple requests raised by the customer from requestsMap\n            while (requestsMap[customer].user_name == customer){\n                address temp = requestsMap[customer].bank_addr;\n                banksMap[temp].kyc_count--;\n                delete requestsMap[customer];\n            }\n        }\n\t}\n    \n    function viewCustomer(bytes32 customer) public payable returns (bytes32, bytes32){\n        if(isPartOfBanks(msg.sender) && checkIfCustomerIsPresent(customer))\n            return (customersMap[customer].user_name, customersMap[customer].data_hash);\n    }\n    \n    function upvoteCustomer(bytes32 customer) public payable {\n        if(isPartOfBanks(msg.sender) && checkIfCustomerIsPresent(customer))\n            customersMap[customer].up_votes++;\n    }\n    \n    function downvoteCustomer(bytes32 customer) public payable {\n        if(isPartOfBanks(msg.sender) && checkIfCustomerIsPresent(customer))\n            customersMap[customer].down_votes--;\n    }\n    \n    // have to complete this function\n    function modifyCustomer(bytes32 customer, bytes32 data_hash) public payable {\n        if(isPartOfBanks(msg.sender)){\n            customersMap[customer].data_hash = data_hash;\n            customersMap[customer].bank_addr = msg.sender;\n            customersMap[customer].up_votes = 0;\n            customersMap[customer].down_votes = 0;\n            \n            while (requestsMap[customer].user_name == customer){\n                address temp = requestsMap[customer].bank_addr;\n                banksMap[temp].kyc_count--;\n                delete requestsMap[customer];\n        }\n    }\n    }\n    \n    function getBankReports(address bank_addr) public view returns (uint){\n        return banksMap[bank_addr].report;\n    }\n    \n    function getCustomerStatus(bytes32 customer) public view returns (bool){\n        return customersMap[customer].kyc_status;   \n    }\n    \n    function viewBankDetails(address bank_addr) public view returns (bytes32){\n        return banksMap[bank_addr].bank_name;\n    }\n    \n    // ADMIN INTERFACE\n    function addBank(bytes32 bank_name, address bank_addr, bytes32 reg_number) onlyAdmin public payable {\n        banksMap[bank_addr] = Bank(bank_name, bank_addr, 0, 0, true, reg_number); \n        bankCounts;\n    }\n    \n    function modifyBankKycPermission(address bank_addr) onlyAdmin public payable {\n        banksMap[bank_addr].kyc_permission = !banksMap[bank_addr].kyc_permission;\n    }\n    \n    function removeBank(address bank_addr) onlyAdmin public payable {\n        delete banksMap[bank_addr];\n    }\n    \n    modifier onlyAdmin(){\n        require(msg.sender == admin, \"You are not an Administrator. Only admins can perform this function...\");\n        _;\n    }\n    \n}\n\n",
  "sourcePath": "/home/lionel/projects/Smart_Contract/Smart_Contract/Phase-3/KYC-SC/contracts/KYC.sol",
  "compiler": {
    "name": "solc",
    "version": "0.5.9+commit.e560f70d.Emscripten.clang"
  },
  "schemaVersion": "3.2.5",
  "updatedAt": "2020-10-03T10:11:36.769Z",
  "devdoc": {
    "methods": {}
  },
  "userdoc": {
    "methods": {}
  }
}